:020000040800F2
:1000000000100020A5090008950600089B060008BE
:1000100000000000000000000000000000000000E0
:10002000000000000000000000000000A50600081D
:100030000000000000000000AF060008B90600083C
:10004000F5090008F5090008F5090008F509000898
:10005000F5090008C7060008F5090008F5090008B9
:1000600000000000F5090008F5090008F50900087E
:10007000F5090008F5090008F5090008D906000887
:10008000F50900080000000000000000F509000864
:1000900000000000F5090008F5090008F50900084E
:1000A00000000000F5090008000000003907000802
:1000B0000000000000000000000000000000000040
:1000C00010B5064C2378002B07D1054B002B02D02E
:1000D000044800E000BF0123237010BDEC000020A5
:1000E0000000000074530008044B10B5002B03D02F
:1000F0000349044800E000BF10BDC04600000000F6
:10010000F00000207453000803B471464908400011
:100110004900095E49008E4403BC70470022430831
:100120008B4274D303098B425FD3030A8B4244D3BF
:10013000030B8B4228D3030C8B420DD3FF22090201
:1001400012BA030C8B4202D31212090265D0030BC0
:100150008B4219D300E0090AC30B8B4201D3CB03B6
:10016000C01A5241830B8B4201D38B03C01A5241F8
:10017000430B8B4201D34B03C01A5241030B8B42FA
:1001800001D30B03C01A5241C30A8B4201D3CB02E5
:10019000C01A5241830A8B4201D38B02C01A5241CA
:1001A000430A8B4201D34B02C01A5241030A8B42CD
:1001B00001D30B02C01A5241CDD2C3098B4201D3E5
:1001C000CB01C01A524183098B4201D38B01C01A63
:1001D000524143098B4201D34B01C01A52410309DA
:1001E0008B4201D30B01C01A5241C3088B4201D389
:1001F000CB00C01A524183088B4201D38B00C01A36
:10020000524143088B4201D34B00C01A5241411A5C
:1002100000D20146524110467047FFE701B5002069
:1002200000F006F802BDC0460029F7D076E7704717
:100230007047C04680B500AF01F0CEFF00F009F86E
:1002400000F0E2F800F0B0F800F05AF800F0D3FB4C
:10025000FEE790B595B000AF20243B19180030237D
:100260001A00002104F0E2F91023FB1818001023F3
:100270001A00002104F0DAF93B00180010231A00DC
:10028000002104F0D3F921007B1802221A607B18A8
:100290000122DA607B1810221A617B1800221A6290
:1002A0007B18180002F0D2FA031E01D000F050F9BA
:1002B00010217B1807221A607B1800225A607B18D5
:1002C00000229A607B180022DA607B180021180057
:1002D00002F0D6FD031E01D000F03AF93B000122E6
:1002E0001A603B0000229A603B00180002F00CFFED
:1002F000031E01D000F02CF9C046BD4615B090BDDC
:1003000080B586B000AF0823FB18180010231A0030
:10031000002104F08BF93B00180008231A0000218B
:1003200004F084F91E4B8022D2051A601C4B002277
:100330005A601B4B00229A60194B1A4ADA60184B1C
:1003400000221A61164B80229A61154B180002F0A8
:10035000A9FF031E01D000F0FBF808217B188022C2
:1003600052011A607A180E4B1100180003F052F96E
:10037000031E01D000F0ECF83B0000221A603B00A5
:1003800000225A603A00064B1100180003F05CFB93
:10039000031E01D000F0DCF8C046BD4606B080BDAB
:1003A00008010020FFFF000080B500AF144B154A84
:1003B0001A60134B962292015A60114B00229A60E8
:1003C0000F4B0022DA600E4B00221A610C4B0C22FC
:1003D0005A610B4B00229A61094B0022DA61084BEB
:1003E00000221A62064B00225A62054B180003F0E5
:1003F00093FB031E01D000F0ABF8C046BD4680BDA4
:10040000500100200038014090B589B000AF0C24A5
:100410003B19180014231A00002104F007F9484B77
:100420005A69474B8021C9030A435A61444B5A69B0
:100430008023DB031340BB60BB68414B5A69404BD0
:10044000802189020A435A613D4B5A6980239B02ED
:1004500013407B607B683A4B5A69394B8021C90253
:100460000A435A61364B5A698023DB0213403B60D2
:100470003B689023DB0500220221180002F0ADF951
:100480003B1901221A603B1903225A603B190022D2
:100490009A603B192B4A1900100002F019F821004C
:1004A0007B1802221A607B18C42292035A600C0047
:1004B0003B1900229A603B19224A1900100002F0F1
:1004C00007F83B19204A1A603B1903225A603B196E
:1004D00000229A603A199023DB051100180001F000
:1004E000F7FF3B1902221A603B1901225A603B199F
:1004F00000229A603B190022DA603A199023DB054A
:100500001100180001F0E4FF3B1902221A603B19A8
:1005100003225A603B1900229A603B190B4A1900CA
:10052000100001F0D5FF00220321052001F09AFF01
:10053000052001F0ACFFC046BD4609B090BDC046E5
:100540000010024000140048F106000000040048BA
:1005500080B500AF72B6C046FEE7000080B582B03D
:1005600000AF0F4B9A690E4B01210A439A610C4B65
:100570009B69012213407B607B68094BDA69084B59
:10058000802149050A43DA61054BDA6980235B055E
:1005900013403B603B68C046BD4602B080BDC046CC
:1005A0000010024080B584B000AF78607B681A68A4
:1005B0008023DB059A4213D10B4BDA690A4B0121E8
:1005C0000A43DA61084BDB6901221340FB60FB68D8
:1005D000002203210F2001F045FF0F2001F057FFFB
:1005E000C046BD4604B080BD0010024090B58BB03F
:1005F00000AF786014243B19180014231A0000215E
:1006000004F014F87B681B68204A93423AD1204BCF
:100610009A691F4B8021C9010A439A611C4B9A6950
:100620008023DB0113403B613B69194B5A69184B2E
:10063000802189020A435A61154B5A6980239B0223
:100640001340FB60FB6821007B180C221A607B18AA
:1006500002225A607B1800229A607B180322DA601B
:100660007B1801221A617A189023DB05110018000B
:1006700001F02EFF002203211B2001F0F3FE1B20BE
:1006800001F005FFC046BD460BB090BD00380140EB
:100690000010024080B500AFFEE780B500AF01F06A
:1006A00006FFFEE780B500AFC046BD4680BD80B501
:1006B00000AFC046BD4680BD80B500AF01F0D4FD9F
:1006C000C046BD4680BD80B500AF022002F0A2F852
:1006D000C046BD4680BD000080B500AF134B1B680F
:1006E0001B6901221340012B18D1104B1B68DB68DA
:1006F00001221340012B11D10C4B1B6802225242E4
:100700001A610B4B1B88013B9AB2094B1A80084BAC
:100710001B88002B02D1074B1B689847034B18001E
:1007200002F08AFEC046BD4680BDC04608010020DA
:10073000500200203C02002080B582B000AF1C4B6C
:100740001B68DB6920221340203B5A425341DBB235
:100750007B60174B1B681B68202213405A1E934175
:10076000DBB23B607B68002B09D03B68002B06D0D6
:10077000104B1B6898470E4B1B6801221A620C4BEA
:100780001B68DB6980221340802B08D1084B1B6853
:100790001B688022134002D0074B1B689847044B0C
:1007A0001B68012252421A62C046BD4602B080BD9B
:1007B00050010020340200203802002080B582B0B1
:1007C00000AF0200BB1D1A80BB1D1B88022B1BD172
:1007D0000F4B0221180001F0E3FF0300012B05D1AC
:1007E00001F054FD02000B4B1A600DE001F04EFDCC
:1007F0000200084B1B68D31A632B05D9064B1B88D4
:1008000001339AB2044B1A80C046BD4602B080BD87
:1008100000140048DC010020D801002080B500AFA2
:1008200001231800BD4680BD80B582B000AF78605E
:10083000396003F051FF030016221A6001235B4266
:100840001800BD4602B080BD80B582B000AF7860B0
:1008500001235A427B6811001800FFF7E5FFFEE70D
:1008600080B586B000AFF860B9607A6000237B6124
:100870000AE000E000BF0100BB685A1CBA60CAB2BF
:100880001A707B6901337B617A697B689A42F0DB7D
:100890007B681800BD4606B080BD80B586B000AF4D
:1008A000F860B9607A6000237B6109E0BB685A1C7C
:1008B000BA601B78180000E000BF7B6901337B61E0
:1008C0007A697B689A42F1DB7B681800BD4606B006
:1008D00080BD80B582B000AF786001235B42180014
:1008E000BD4602B080BD80B582B000AF786039608F
:1008F0003B68802292015A6000231800BD4602B076
:1009000080BD80B582B000AF786001231800BD467D
:1009100002B080BD80B584B000AFF860B9607A6085
:1009200000231800BD4604B080BD000080B586B02D
:1009300000AF7860144A154BD31A7B617B693B6129
:10094000134B1B68002B02D1114B124A1A60104B3B
:100950001A687B68D3183A699A4207D203F0BCFE42
:1009600003000C221A6001235B4209E0084B1B685C
:10097000FB60074B1A687B68D218054B1A60FB684E
:100980001800BD4606B080BD001000200004000025
:10099000E0010020B004002080B500AFC046BD4695
:1009A00080BD00000D488546FFF7F6FF0C480D4955
:1009B0000D4A002302E0D458C4500433C4188C42BA
:1009C000F9D30A4A0A4C002301E013600432A24220
:1009D000FBD303F087FEFFF72DFCFEE7001000209D
:1009E00000000020EC000020085C0008EC00002063
:1009F000AC040020FEE780B500AF00F00BF8032048
:100A000001F04EFC00F032F8022001F049FC00F049
:100A10005BFFFCE790B500AF104B114A13CA13C33C
:100A20001168196092889A800C4B1B880D4A93427A
:100A300011D00A4B0C4A1A80084B01225A80074BEE
:100A40002A229A80054B0322DA80044B00221A8165
:100A5000024B00225A81C046BD4690BDE4010020F1
:100A600000580008A5A50000A5A5FFFF90B585B01A
:100A700002AF0B4B9B88D9B2FC1D9623DB010022F1
:100A800000920322002000F069FE03002370FC1D89
:100A900000F0FCFE03002370C046BD4603B090BDCD
:100AA000E401002080B586B000AF78600800110036
:100AB000BB1C021C1A803B000A1C1A801723FB185F
:100AC00000221A700E217B18BA1C1288013A1A8073
:100AD0007B181A88FA23DB009A4233D17B181A88D4
:100AE0003B001B88D3181D4A93422BDC1C4B1A88F1
:100AF0001C4B1A807B181B881B4A12889B1A3B616F
:100B00001BE0184B3A695200D35A1B0A99B27B6812
:100B10005A1C7A60CAB21A70124B3A695200D15A02
:100B20007B685A1C7A60CAB21A703B6901333B6118
:100B30003B001A883B00013A1A803B001B88002BBF
:100B4000DFD103E01723FB1801221A701723FB18CB
:100B50001B781800BD4606B080BDC046D107000016
:100B6000D8010020F801002004000020B0B588B0B2
:100B700000AFF8600C00100019000A257B19221C38
:100B80001A8008243B19021C1A80FB1D0A1C1A70CB
:100B90001F23FB1800221A7016217B187A1912885D
:100BA000013A1A80FB1D1B78002B33D17B181A8861
:100BB0003B191B88D318092B27DC1C4BBB617B1806
:100BC0001B885B00BA69D318BB6118E0BB691B883E
:100BD0001B0A99B2FB685A1CFA60CAB21A70BB6948
:100BE0001988FB685A1CFA60CAB21A70BB690233D2
:100BF000BB6108217B181A887B18013A1A800823E8
:100C0000FB181B88002BE1D108E01F23FB180122F1
:100C10001A7003E01F23FB1801221A701F23FB1810
:100C20001B781800BD4608B0B0BDC046E4010020E6
:100C300090B585B000AFF8600C00100019000A23D1
:100C4000FB18221C1A800823FB18021C1A80FB1DAB
:100C50000A1C1A7001231800BD4605B090BD80B56E
:100C600082B000AF786008001100BB1C021C1A8023
:100C70003B000A1C1A8001231800BD4602B080BD4B
:100C8000B0B586B000AF786039601623FB1800223B
:100C90001A703B681B88052B00D091E07B680133FC
:100CA0001B789AB214203B1812021A807B68023318
:100CB0001B7899B23B183A1812880A431A803B18DD
:100CC0001A883B1801321A807B6803331B789AB26A
:100CD00012203B1812021A807B6804331B7899B2E9
:100CE0003B183A1812880A431A803B181B88002BBD
:100CF00061D001003B181A88FA23DB009A425AD2CD
:100D00007B68FB603B6800221A80FB685A1CFA6013
:100D100001221A703B681B8801339AB23B681A8023
:100D20007B181B880722134009D07B181B88DB081F
:100D30009BB2DAB21723FB1801321A7007E01223B4
:100D4000FB181B88DB089AB21723FB181A70FB6884
:100D50005A1CFA601722BA1812781A703B681B885E
:100D600001339AB23B681A800B257C191223FB18B9
:100D70001A881423FB181988F8680023FFF758FF16
:100D8000030023707B191B78002B09D01623FC1855
:100D90007B191B78180000F0B5FC0300237013E0EA
:100DA0003B681A881723FB181B789BB2D3189AB29A
:100DB0003B681A8008E01623FB1803221A7003E030
:100DC0001623FB1803221A701623FB181B78180031
:100DD000BD4606B0B0BDB0B584B000AF7860396034
:100DE0000F23FB1800221A703B681B88052B55D176
:100DF0007B6801331B789AB20C203B1812021A80D0
:100E00007B6802331B7899B23B183A1812880A4360
:100E10001A803B181A883B1801321A807B68043309
:100E20001B78002B35D17B6803331B78FF2B04D054
:100E30007B6803331B78002B2BD108217B18002201
:100E40005A707B6803331B78FF2B03D17B18012278
:100E50001A7003E00823FB1800221A700B257C1976
:100E60000C23FB1819880823F81801230122FFF727
:100E7000DFFE030023707B191B78002B12D00F2399
:100E8000FC187B191B78180000F03CFC0300237051
:100E900008E00F23FB1803221A7003E00F23FB184E
:100EA00003221A700F23FB181B781800BD4604B0EC
:100EB000B0BDB0B584B000AF786039600E23FB18C8
:100EC00000221A703B681B88052B00D87AE07B68EB
:100ED00001331B789AB20C203B1812021A807B68EF
:100EE00002331B7899B23B183A1812880A431A80C9
:100EF0003B181A883B1801321A807B6803331B7831
:100F00009AB20A203B1812021A807B6804331B78BD
:100F100099B23B183A1812880A431A800923FB1821
:100F20007A6852791A703B181B880722134009D03F
:100F30003B181B88DB089BB2DAB20F23FB18013287
:100F40001A7007E00A23FB181B88DB089AB20F23EC
:100F5000FB181A700A217B181B88002B2DD07B18D8
:100F60001A88F623DB009A4227D80F23FA180923A0
:100F7000FB1812781B789A421FD17B68981D0825B0
:100F80007C197B181A880C23FB1819880123FFF79A
:100F90004FFE030023707B191B78002B09D00E2312
:100FA000FC187B191B78180000F0ACFB03002370C1
:100FB0000CE03B6805221A8008E00E23FB18032290
:100FC0001A7003E00E23FB1803221A700E23FB187D
:100FD0001B781800BD4604B0B0BDB0B586B000AFF8
:100FE000786039601623FB1800221A703B681B8852
:100FF000052B00D091E07B6801331B789AB2142056
:101000003B1812021A807B6802331B7899B23B1896
:101010003A1812880A431A803B181A883B18013282
:101020001A807B6803331B789AB212203B18120295
:101030001A807B6804331B7899B23B183A181288DF
:101040000A431A803B181B88002B61D001003B1813
:101050001A88FA23DB009A425AD27B68FB603B680D
:1010600000221A80FB685A1CFA6002221A703B6840
:101070001B8801339AB23B681A807B181B880722B1
:10108000134009D07B181B88DB089BB2DAB2172308
:10109000FB1801321A7007E01223FB181B88DB08CB
:1010A0009AB21723FB181A70FB685A1CFA601722B1
:1010B000BA1812781A703B681B8801339AB23B68E1
:1010C0001A800B257C191223FB181A881423FB188D
:1010D0001988FB681800FFF7C2FD030023707B1915
:1010E0001B78002B09D01623FC187B191B781800DD
:1010F00000F008FB0300237013E03B681A881723F5
:10110000FB181B789BB2D3189AB23B681A8008E090
:101110001623FB1803221A7003E01623FB18032280
:101120001A701623FB181B781800BD4606B0B0BD18
:10113000F0B585B000AF786039600F26BB1900228A
:101140001A703B681B88052B2FD17B6801331B78F5
:101150009AB20C203B1812021A807B6802331B786B
:1011600099B23B183A1812880A431A803B181A8819
:1011700001003B1801321A807B68D81C0B257C19B2
:101180007B18198801230122FFF7F0FC030023706C
:101190007B191B78002B0CD0BC197B191B7818000D
:1011A00000F0B0FA0300237003E00F23FB180322C2
:1011B0001A700F23FB181B781800BD4605B0F0BD50
:1011C000F0B585B000AF786039600F23FB180022BE
:1011D0001A703B681B88052B62D97B6801331B782A
:1011E0009AB20C203B1812021A807B6802331B78DB
:1011F00099B23B183A1812880A431A803B181A8889
:1012000005003B1801321A807B6803331B789AB2C1
:101210000A203B1812021A807B6804331B7899B2AB
:101220003B183A1812880A431A8009243B197A6835
:1012300052791A7001007B181B88002B2BD07B1869
:101240001B88782B27D87B181B88DBB2DB18DBB216
:101250003A1912789A421ED17B68981D0826BC194B
:101260007B181A887B1919880123FFF77FFC03007C
:101270002370BB191B78002B09D00F23FC18BB1956
:101280001B78180000F03EFA030023700CE03B6866
:1012900005221A8008E00F23FB1803221A7003E0CE
:1012A0000F23FB1803221A700F23FB181B7818005A
:1012B000BD4605B0F0BDF0B587B000AF78603960CD
:1012C0001723FB1800221A703B681B88052B00D0DF
:1012D00075E07B6801331B789AB214203B18120228
:1012E0001A807B6802331B7899B23B183A1812882F
:1012F0000A431A803B181A883B1801321A807B680F
:1013000003331B789AB212257B1912021A807B686C
:1013100004331A787B191A807B191B88002B49D05B
:101320007B191B887D2B45D87B68FB603B680022BE
:101330001A80FB685A1CFA6003221A703B681B88EB
:1013400001339AB23B681A807B191B88D9B2FB68BB
:101350005A1CFA600A1C9218D2B21A703B681B8899
:1013600001339AB23B681A800B26BC197B191A8884
:101370003B181988F8680023FFF7F8FB0300237077
:10138000BB191B78002B09D01723FC18BB191B783D
:10139000180000F0B7F90300237014E03B681A88C6
:1013A0001223FB181B88DB189BB2D3189AB23B6838
:1013B0001A8008E01723FB1803221A7003E0172392
:1013C000FB1803221A701723FB181B781800BD4660
:1013D00007B0F0BDF0B587B000AF78603960172373
:1013E000FB1800221A703B681B88092B00D8D0E03C
:1013F0007B6801331B789AB214203B1812021A80C2
:101400007B6802331B7899B23B183A1812880A435A
:101410001A803B181A8806003B1801321A807B6834
:1014200003331B789AB212203B1812021A807B6891
:1014300004331B7899B23B183A1812880A431A8071
:101440007B6805331B789AB210243B1912021A806C
:101450007B6806331B7899B23B193A1912880A4304
:101460001A803B191A883B1901321A807B680733AE
:101470001B789AB20E243B1912021A807B6808333B
:101480001B7899B23B193A1912880A431A800D2227
:10149000BB187A68527A1A703B181B88002B00D14F
:1014A00073E005003B181B887D2B00D96DE02100FF
:1014B0007B181B88002B68D07B181B88792B64D87D
:1014C0007B181B885A000D203B181B789A425CD170
:1014D0007B6818000A301622BC187B181A88102363
:1014E000FB1819880123FFF741FB03002370162026
:1014F0003B181B78002B39D17B68BB603B6800220E
:101500001A80BB685A1CBA6017221A703B681B8885
:1015100001339AB23B681A807B191B88D9B2BB6829
:101520005A1CBA600A1C9218D2B21A703B681B8807
:1015300001339AB23B681A803C187B191A88BB1990
:101540001988B8680023FFF711FB030023701620E9
:101550003B181B78002B09D13B681A887B191B8824
:10156000DB189BB2D3189AB23B681A801622BB18BC
:101570001B78002B0DD01723FC18BB181B78180004
:1015800000F0C0F80300237003E01723FB180322C8
:101590001A701723FB181B781800BD4607B0F0BD62
:1015A000F0B587B000AF786039601723FB180022D0
:1015B0001A703B681B88052B00D07AE07B680133EA
:1015C0001B789AB214203B1812021A807B680233EF
:1015D0001B7899B23B183A1812880A431A803B18B4
:1015E0001A8805003B1801321A807B6803331B7888
:1015F0009AB212203B1812021A807B6804331B78BF
:1016000099B23B183A1812880A431A803B181B8873
:10161000002B49D03B181B887C2B45D87B68FB608E
:101620003B6800221A80FB685A1CFA6004221A7078
:101630003B681B8801339AB23B681A803B181B88B1
:10164000D9B2FB685A1CFA600A1C9218D2B21A70FE
:101650003B681B8801339AB23B681A800B26BC1981
:101660003B181A887B191988FB681800FFF71AFACB
:1016700003002370BB191B78002B09D01723FC181B
:10168000BB191B78180000F03DF80300237014E02C
:101690003B681A881223FB181B88DB189BB2D318EF
:1016A0009AB23B681A8008E01723FB1803221A70CD
:1016B00003E01723FB1803221A701723FB181B786B
:1016C0001800BD4607B0F0BD80B582B000AF7860AD
:1016D00039607B68581C094B1B881A00084B19009D
:1016E00003F027F8054B1B8801339AB23B681A8038
:1016F00000231800BD4602B080BDC0461C02002079
:10170000FC01002080B584B000AF0200FB1D1A7000
:10171000FB1D1B78072B0FD013DC002B02D0012BF5
:1017200005D00EE00F23FB1800221A700EE00F23E5
:10173000FB1802221A7009E00F23FB1806221A7008
:1017400004E00F23FB1804221A70C0460F23FB1875
:101750001B781800BD4604B080BD0000B0B584B051
:1017600000AF0400080011003B60FB1D221C1A7032
:10177000BB1D021C1A707B1D0A1C1A700F23FB185C
:1017800000221A70BB1D1B78002B07D0BB1D1B78D5
:10179000002B03D0BB1D1B78F72B04D90F23FB189C
:1017A00002221A7047E0274BBA1D12781A70FB1DEF
:1017B0001B78002B27D1244B244A1A60244B254A3E
:1017C0001A60254B254A1A60254B264A1A60264B7B
:1017D00000221A60254B264A1A60264B264A1A60B8
:1017E000264B274A1A60174B18780F23FC18202322
:1017F000FB181D783A687B1D19782B0000F0A0FAC1
:101800000300237003E00F23FB1802221A700F2439
:101810003B191B78002B0ED100F01EF9031E03D1DB
:101820003B1903221A7006E0164BFA1D12781A7043
:10183000154B01221A700F23FB181B781800BD46A8
:1018400004B0B0BD1E02002024020020DD1D0008EF
:1018500028020020051E000820020020D51E0008D6
:101860002C020020251E0008300200203402002037
:10187000BD1F000838020020912000083C02002013
:10188000452100081F0200200600002080B582B01C
:1018900000AFFB1D00221A70094B1B78012B06D1EB
:1018A000084B1B689847064B00221A7002E0FB1D8C
:1018B00006221A70FB1D1B781800BD4602B080BDC1
:1018C0000600002024020020B0B582B000AFFB1C4F
:1018D00000221A70564B1B78002B01D00623A3E080
:1018E000BB1C180000F0DAF80300012B00D09AE0CE
:1018F000BB1C1B78032B00D18EE000DD93E0022B94
:1019000024D000DD8FE0002B00D187E0012B00D038
:1019100089E0484B1B68FC1C474A4849484898479F
:1019200003002370FB1C1B78002B00D078E0444B95
:101930001A78444B1B789A4204D0414B1B78002BF9
:1019400000D06DE0022000F093F869E03B4B1B688B
:101950001A783D4B1A703D4B01221A7000237B60B0
:1019600020E03B4B7A68D200D35C002B1ED0384B72
:101970007A68D200D25C344B1B789A420FD1344A39
:101980007B68DB00D31804331A682C4B1B682A4988
:101990001800904703001A002C4B1A7007E07B6870
:1019A00001337B607B680F2BDBDD00E0C046244BFE
:1019B0001B78002B36D0254B1B78002B1ED01E4BDE
:1019C00000221A80204B1A781C4B19681A4B1B886E
:1019D000581C84B218480480CB18802149420A431D
:1019E000D2B21A70154B1A68134B1B88591C88B257
:1019F00011490880D318154A12781A70154B1D68C2
:101A0000104B18780D4B19680B4B1B88FC1C1A00E7
:101A1000A8470300237005E0C04604E0C04602E08A
:101A2000C04600E0C04600231800BD4602B0B0BD6D
:101A3000060000202C020020480200204402002062
:101A4000400200201E0200204A0200204B0200201B
:101A5000080000202002002080B500AF034B0022C8
:101A60001A7001231800BD4680BDC0464D020020FB
:101A700080B582B000AF0200FB1D1A70054B012239
:101A80001A70054BFA1D12781A7001231800BD4612
:101A900002B080BD4D0200204C02002080B584B011
:101AA00000AF78600F217B1800221A700A4B1B7858
:101AB000002B09D0094B1A787B681A70064B00225C
:101AC0001A707B1801221A700F23FB181B7818005C
:101AD000BD4604B080BDC0464D0200204C0200202F
:101AE00080B582B000AF0200FB1D1A70BB1D0A1C3E
:101AF0001A70FB1D1B78002B0FD09023DB050022F2
:101B00000221180000F069FE184B1B681A68174B79
:101B10001B6820210A431A6007E0144B1B681A68EF
:101B2000124B1B6820218A431A60BB1D1B78002BB7
:101B30000FD09023DB0501220221180000F04DFE9A
:101B40000A4B1B681A68094B1B6880210A431A60FC
:101B500007E0064B1B681A68044B1B6880218A4308
:101B60001A60C046BD4602B080BDC046500100208C
:101B700090B583B000AF0400396010001900FB1D60
:101B8000221C1A70BB1D021C1A707B1D0A1C1A70C5
:101B900001231800BD4603B090BD000080B582B09F
:101BA00000AF0200FB1D1A70F91D06480A2301222E
:101BB00002F006F803005A425341DBB21800BD465A
:101BC00002B080BD5001002080B582B000AF7860C7
:101BD000054B1B689B8C9BB2DAB27B681A700123A1
:101BE0001800BD4602B080BD5001002080B584B011
:101BF00000AF0200BB1D1A801B4B8022D2051A6069
:101C000001F06CFA030019491800FEF787FA030087
:101C10005A1E154B5A60144B00229A60124B312207
:101C2000DA60134BBA1D12881A800F4B180001F0AE
:101C300039FB031E01D0002311E008217B1820226C
:101C40001A607B1800225A607A18074B110018009E
:101C500001F0FAFE031E01D0002300E0012318006A
:101C6000BD4604B080BDC0460801002040420F00C0
:101C70004E02002080B500AF054B1A88054B1A8034
:101C8000054B180001F05EFBC046BD4680BDC04656
:101C90004E020020500200200801002080B500AF55
:101CA000034B180001F09AFBC046BD4680BDC046FC
:101CB0000801002080B584B000AF78600A00BB1C2A
:101CC0001A800F23FB18FF221A700E23FB18FF2225
:101CD0001A7019E07B685A1C7A601A780E203B183B
:101CE0001B785340DBB2BB60134ABB68D31819782A
:101CF0003B180F203A1812784A401A703B180F49C7
:101D0000BA688A1812781A70BB1C1B88BA1C591E34
:101D10001180002BDED10F23FB181B781B021AB297
:101D20000E23FB181B781BB213431BB29BB2180087
:101D3000BD4604B080BDC0468454000884550008E8
:101D400090B585B000AF040008003A601900FB1D93
:101D5000221C1A70BB1D021C1A707B1D0A1C1A70F3
:101D60000F243B1900221A7072B6C0467B1D1A78E8
:101D70003968BB1D187813000822FFF7F9FE03002D
:101D8000012B03D03B1903221A701BE03A689623FB
:101D9000DB019A4202D92323BB6007E03B685B006A
:101DA00019000D48FEF7BAF90300BB60BB689BB28F
:101DB0001800FFF71BFF0300012B03D00F23FB18B4
:101DC00003221A7062B6C0460F23FB181B78180056
:101DD000BD4605B090BDC046A07F170080B500AFDE
:101DE00072B6C046064B00221A7000210120FFF790
:101DF00077FEFFF73FFF62B6C046C046BD4680BDD6
:101E00005302002080B500AF72B6C046002100200A
:101E1000FFF766FEFFF742FF62B6C046C046BD460A
:101E200080BD000080B586B000AFF860B9607A6010
:101E30001623FB1800221A701723FB1800221A70B1
:101E400072B6C0461D4B1B889BB2FF2B05D91C4B9D
:101E50001C4A1D489C2102F0ABFA184B1B889BB210
:101E6000032B1DD9154B1B889AB2184B1100180073
:101E7000FFF720FF031E13D1144B1B78DAB2FB6867
:101E80001A700E4B1B889BB2033B9AB27B681A8078
:101E9000BB680F4A1A601623FB1801221A7003E070
:101EA0001723FB1805221A7062B6C0461723FB18C9
:101EB0001B781800BD4606B080BDC0465A030020FE
:101EC0008C53000884560008B453000854020020C4
:101ED00055020020B0B584B000AF39601100FB1D81
:101EE000021C1A703B1D0A1C1A800F23FB180022CB
:101EF0001A7072B6C0462C4B1B78DBB2012B45D151
:101F00003B685A1E294B1A60294B01221A80274B25
:101F10001B68FA1D12781A70254B1B889AB23B1D5C
:101F20001B88D3189AB2224B1A80204B1A68204B78
:101F30001B889BB20C257C1919001000FFF7BAFE14
:101F4000030023801A4B1B889BB25A1C91B2184A7B
:101F500011801A007B191B88D9B2164B99547B1932
:101F60001B881B0A99B2124B1B889BB25A1C90B259
:101F70000F4A10801A00C9B20E4B99540E4B012221
:101F80001A7001210020FFF7ABFD03E00F23FB18BF
:101F900005221A7062B6C0460F23FB181B78180082
:101FA000BD4604B0B0BDC04653020020540300201B
:101FB00058030020540200205202002080B582B055
:101FC00000AFFB1D00221A702A4B1B78DBB2002BDE
:101FD00005D0294B294A2A48E62102F0E9F9BB1D20
:101FE0001800FFF7F1FD274B1B78DBB2032B0BD05A
:101FF0003ADC022B20D037DC002B02D0012B06D09C
:1020000032E0FFF737FE2FE0FFF734FE2CE01E4BE7
:1020100000221A801C4B1B889BB25A1C91B21A4A90
:1020200011801A00BB1D1978184B9954154B0222C8
:102030001A70FFF71FFE17E0134B1B889BB2FF2B94
:102040000CD8114B1B889BB25A1C91B20E4A1180BE
:102050001A00BB1D19780D4B995402E0094B03225D
:102060001A70FFF707FEC046FB1D1B781800BD461F
:1020700002B080BD52020020D053000894560008E0
:10208000B4530008530200205A03002054020020D9
:1020900090B583B000AFFB1D00221A70224B1B7855
:1020A000DBB2012B06D0214B214A2221FF312148EE
:1020B00002F07EF9204B1B78DBB2002B02D0012B03
:1020C00005D02BE000210120FFF70AFD26E01B4B85
:1020D0001B889BB2002B13D0194B1B681B78DBB2FB
:1020E0001800FFF75BFD164B1B685A1C144B1A6057
:1020F000124B1B889BB2013B9AB2104B1A800CE02A
:10210000FC1D0320FFF7B4FC030023700021012015
:10211000FFF7E6FC084B00221A70C046FB1D1B7837
:102120001800BD4603B090BD53020020EC530008D8
:10213000A8560008B453000852020020580300209B
:102140005403002090B583B000AFFB1D00221A702D
:102150001D4B1B78DBB2032B29D012DC002B02D0E5
:10216000022B07D00DE0FC1D0020FFF781FC0300CF
:1021700023701DE0FC1D0120FFF77AFC0300237093
:1021800016E0114B1B78DBB2002B11D00E4B1B78E5
:10219000DBB2022B0CD00C4B1B78DBB2032B07D02D
:1021A0000A4B0B4AAD2149000A4802F001F9C0462A
:1021B000FFF774FD044B01221A70FB1D1B781800F9
:1021C000BD4603B090BDC04653020020085400082D
:1021D000BC560008B453000880B500AF074B1A681E
:1021E000064B10210A431A60032000F009F8FEF79D
:1021F000B5F900231800BD4680BDC046002002404E
:1022000090B583B000AF7860144B1C68144B1B78FA
:102210001900FA239800FDF781FF03001900200040
:10222000FDF77CFF0300180000F045F9031E01D004
:1022300001230FE07B68032B0BD8796801235B42F5
:102240000022180000F00EF9064B7A681A6000238D
:1022500000E001231800BD4603B090BD000000203F
:102260008C0000208800002080B500AF054B1B7853
:102270001A00054B1B68D218034B1A60C046BD46B6
:1022800080BDC0468C0000205C03002080B500AFFC
:10229000024B1B681800BD4680BDC0465C03002091
:1022A00080B584B000AF7860FFF7F0FF0300BB603B
:1022B0007B68FB60FB68013305D00A4B1B781A0072
:1022C000FB689B18FB60C046FFF7E0FF0200BB689D
:1022D000D31AFA689A42F7D8C046C046BD4604B041
:1022E00080BDC0468C00002080B582B000AF0200E7
:1022F000FB1D1A70FB1D1B787F2B09D8FB1D1B785B
:102300001A001F231A40044B012191400A001A6051
:10231000C046BD4602B080BD00E100E090B583B08C
:1023200000AF02003960FB1D1A70FB1D1B787F2B6C
:1023300028D82F4AFB1D1B785BB29B08C0339B003B
:102340009B58FA1D1278110003220A40D200FF2187
:1023500091400A00D2431A4011003B689B01FF22C2
:102360001A40FB1D1B78180003230340DB009A4032
:102370001F48FB1D1B785BB29B080A43C0339B00C0
:102380001A5031E01B4AFB1D1B7819000F230B402C
:10239000083B9B0806339B00D31804331B68FA1DC7
:1023A0001278110003220A40D200FF2191400A0056
:1023B000D2431A4011003B689B01FF221A40FB1DCB
:1023C0001B78180003230340DB009A400948FB1DDB
:1023D0001B781C000F232340083B9B080A4306334D
:1023E0009B00C31804331A60C046BD4603B090BDBD
:1023F00000E100E000ED00E080B500AFBFF34F8FDB
:10240000C046044B044ADA60BFF34F8FC046C04653
:10241000FDE7C04600ED00E00400FA0580B582B09B
:1024200000AF78607B685A1E80235B049A4201D318
:10243000012310E00A4B7A68013A5A6001235B429B
:1024400003211800FFF76AFF054B00229A60044B36
:1024500007221A6000231800BD4602B080BDC046A6
:1024600010E000E080B584B000AFB9607A600F2161
:102470007B18021C1A70BA687B181B785BB21100BB
:102480001800FFF74BFFC046BD4604B080BD80B5C5
:1024900082B000AF0200FB1D1A70FB1D1B785BB2FF
:1024A0001800FFF721FFC046BD4602B080BD80B5D1
:1024B00000AFFFF7A1FF80B582B000AF78607B6806
:1024C0001800FFF7ABFF03001800BD4602B080BD47
:1024D00080B586B000AF7860396000237B6149E148
:1024E0003B681B6801217A6991400A001340FB6038
:1024F000FB68002B00D13AE13B685B680322134084
:10250000012B05D03B685B6803221340022B30D1BE
:102510007B689B683B617B695B0003229A401300E8
:10252000DA433B6913403B613B68DA687B695B00D7
:102530009A4013003A6913433B617B683A699A6099
:102540007B685B683B6101227B699A401300DA4338
:102550003B6913403B613B685B681B0901221A40E1
:102560007B699A4013003A6913433B617B683A697F
:102570005A603B685B6803221340032B17D07B68CB
:10258000DB683B617B695B0003229A401300DA43FE
:102590003B6913403B613B689A687B695B009A40EA
:1025A00013003A6913433B617B683A69DA603B6820
:1025B0005B6803221340022B23D17B69DA087B6816
:1025C00008329200D3583B617B69072213409B007D
:1025D0000F229A401300DA433B6913403B613B688A
:1025E0001A697B6907210B409B009A4013003A69E6
:1025F00013433B617B69DA087B68083292003969D2
:10260000D1507B681B683B617B695B0003229A4069
:102610001300DA433B6913403B613B685B6803226C
:102620001A407B695B009A4013003A6913433B618F
:102630007B683A691A603B685A68C0239B02134062
:1026400000D194E0514B9A69504B01210A439A61A1
:102650004E4B9B6901221340BB60BB684C4A7B69AF
:102660009B0802339B009B583B617B69032213400C
:102670009B000F229A401300DA433B6913403B61F1
:102680007A689023DB059A420DD07B68414A9342D9
:1026900007D07B68404A934201D1022304E005231E
:1026A00002E0012300E000237A6903210A4092003E
:1026B00093403A6913433B6135497B699B08023378
:1026C0009B003A695A50354B9B683B61FB68DA4383
:1026D0003B6913403B613B685A6880235B031340AE
:1026E00003D03A69FB6813433B612C4B3A699A600B
:1026F0002A4BDB683B61FB68DA433B6913403B6173
:102700003B685A6880239B03134003D03A69FB68F7
:1027100013433B61214B3A69DA60204B5B683B61B4
:10272000FB68DA433B6913403B613B685A6880238E
:102730009B02134003D03A69FB6813433B61174B7C
:102740003A695A60154B1B683B61FB68DA433B6989
:1027500013403B613B685A6880235B02134003D0FF
:102760003A69FB6813433B610C4B3A691A607B6919
:1027700001337B613B681A687B69DA40131E00D025
:10278000AEE6C046C046BD4606B080BD0010024061
:102790000000014000040048000800480004014017
:1027A00080B584B000AF78600A00BB1C1A807B68DB
:1027B0001B69BA1C1288134004D00F23FB18012296
:1027C0001A7003E00F23FB1800221A700F23FB1866
:1027D0001B781800BD4604B080BD80B582B000AF44
:1027E000786008001100BB1C021C1A807B1C0A1CAC
:1027F0001A707B1C1B78002B04D0BB1C1A887B68CA
:102800009A6103E0BB1C1A887B689A62C046BD4689
:1028100002B080BD80B582B000AF0200BB1D1A803F
:10282000094B5B69BA1D1288134008D0064BBA1DCC
:1028300012885A61BB1D1B881800FDF7BFFFC046F8
:10284000BD4602B080BDC0460004014080B588B0DE
:1028500000AF78607B68002B01D1012301E37B6826
:102860001B680122134000D18DE0C34B5B680C2232
:102870001340042B0ED0C04B5B680C221340082B76
:1028800016D1BD4B5A6880235B021A4080235B023D
:102890009A420DD1B84B1A6880239B02134000D195
:1028A00070E07B685B68002B00D06BE00123D8E20E
:1028B0007B685B68012B07D1AF4B1A68AE4B802158
:1028C00049020A431A602FE07B685B68002B0CD139
:1028D000A94B1A68A84BA9490A401A60A64B1A6866
:1028E000A54BA7490A401A601EE07B685B68052B70
:1028F0000ED1A14B1A68A04B8021C9020A431A606D
:102900009D4B1A689C4B802149020A431A600BE0D8
:10291000994B1A68984B99490A401A60964B1A6865
:10292000954B97490A401A607B685B68002B14D06E
:10293000FFF7ACFC0300BB6108E0FFF7A7FC020057
:10294000BB69D31A642B01D903238AE28A4B1A6824
:1029500080239B021340F0D015E0FFF797FC0300A3
:10296000BB6108E0FFF792FC0200BB69D31A642B3D
:1029700001D9032375E2804B1A6880239B02134020
:10298000F0D100E0C0467B681B680222134000D1F2
:1029900069E0794B5B680C2213400BD0764B5B6887
:1029A0000C221340082B1CD1734B5A6880235B0206
:1029B000134016D1704B1B680222134005D07B6870
:1029C000DB68012B01D001234BE26B4B1B68F82223
:1029D000934319007B681B69DA00674B0A431A604E
:1029E00041E07B68DB68002B24D0634B1A68624BA4
:1029F00001210A431A60FFF749FC0300BB6108E0AC
:102A0000FFF744FC0200BB69D31A022B01D9032350
:102A100027E2594B1B6802221340F1D0564B1B682A
:102A2000F822934319007B681B69DA00524B0A4372
:102A30001A6018E0504B1A684F4B01218A431A6004
:102A4000FFF724FC0300BB6108E0FFF71FFC020056
:102A5000BB69D31A022B01D9032302E2464B1B6840
:102A600002221340F1D17B681B680822134036D044
:102A70007B68DB69002B19D03F4B5A6A3E4B012122
:102A80000A435A62FFF702FC0300BB6108E0FFF74C
:102A9000FDFB0200BB69D31A022B01D90323E0E13D
:102AA000354B5B6A02221340F1D018E0324B5A6A70
:102AB000314B01218A435A62FFF7E8FB0300BB61F7
:102AC00008E0FFF7E3FB0200BB69D31A022B01D930
:102AD0000323C6E1284B5B6A02221340F1D17B68D5
:102AE0001B680422134000D1B4E01F203B180022D1
:102AF0001A70214BDA6980235B05134010D11E4BFD
:102B0000DA691D4B802149050A43DA611A4BDA69FB
:102B100080235B051340FB60FB683B1801221A70A1
:102B2000184B1A6880235B0013401AD1154B1A68A2
:102B3000144B802149000A431A60FFF7A7FB0300EA
:102B4000BB6108E0FFF7A2FB0200BB69D31A642B4C
:102B500001D9032385E10B4B1A6880235B001340E6
:102B6000F0D07B689B68012B0ED1034B1A6A024B95
:102B700001210A431A6235E000100240FFFFFEFF08
:102B8000FFFFFBFF007000407B689B68002B0CD1AF
:102B9000B64B1A6AB54B01218A431A62B34B1A6AC3
:102BA000B24B04218A431A621CE07B689B68052BA8
:102BB0000CD1AE4B1A6AAD4B04210A431A62AB4BDF
:102BC0001A6AAA4B01210A431A620BE0A74B1A6A40
:102BD000A64B01218A431A62A44B1A6AA34B042113
:102BE0008A431A627B689B68002B14D0FFF74EFB68
:102BF0000300BB6109E0FFF749FB0200BB69D31A80
:102C00009B4A934201D903232BE1984B1B6A022272
:102C10001340F0D013E0FFF739FB0300BB6109E07C
:102C2000FFF734FB0200BB69D31A914A934201D9E2
:102C3000032316E18D4B1B6A02221340F0D11F23A0
:102C4000FB181B78012B05D1884BDA69874B894922
:102C50000A40DA617B681B681022134063D07B68EE
:102C60005B69012B2AD1814B5A6B804B04210A43AB
:102C70005A637E4B5A6B7D4B01210A435A63FFF71F
:102C800005FB0300BB6108E0FFF700FB0200BB6926
:102C9000D31A022B01D90323E3E0744B5B6B0222AE
:102CA0001340F1D0714B5B6BF822934319007B68A2
:102CB0009B69DA006D4B0A435A6334E07B685B69B9
:102CC000053311D1694B5A6B684B04218A435A630F
:102CD000664B5B6BF822934319007B689B69DA00B3
:102CE000624B0A435A631EE0604B5A6B5F4B0421F0
:102CF0000A435A635D4B5A6B5C4B01218A435A630A
:102D0000FFF7C4FA0300BB6108E0FFF7BFFA020057
:102D1000BB69D31A022B01D90323A2E0534B5B6B8F
:102D200002221340F1D17B681B6A002B00D197E08F
:102D30004E4B5B680C221340082B00D16BE07B6884
:102D40001B6A022B4CD1494B1A68484B4A490A402E
:102D50001A60FFF79BFA0300BB6108E0FFF796FAE1
:102D60000200BB69D31A022B01D9032379E03F4B40
:102D70001A6880239B041340F0D13C4BDB6A0F227E
:102D8000934319007B68DA6A384B0A43DA62374B9F
:102D90005B683A4A134019007B689A6A7B685B6AF1
:102DA0001A43324B0A435A60304B1A682F4B80212A
:102DB00049040A431A60FFF769FA0300BB6108E09F
:102DC000FFF764FA0200BB69D31A022B01D903236F
:102DD00047E0264B1A6880239B041340F0D03FE065
:102DE000224B1A68214B24490A401A60FFF74EFA19
:102DF0000300BB6108E0FFF749FA0200BB69D31A80
:102E0000022B01D903232CE0184B1A6880239B0462
:102E10001340F0D124E07B681B6A012B01D1012310
:102E20001FE0124B5B687B61104BDB6A3B617A6988
:102E300080235B021A407B685B6A9A420ED13B6931
:102E40000F221A407B68DB6A9A4207D17A69F02325
:102E50009B031A407B689B6A9A4201D0012300E0E1
:102E600000231800BD4608B080BDC04600100240D7
:102E700088130000FFFFFFEFFFFFFFFEFFFFC2FF11
:102E800080B584B000AF786039607B68002B01D1D9
:102E90000123B3E05B4B1B68012213403A689A425E
:102EA00011D9584B1B68012293431900554B3A68BE
:102EB0000A431A60534B1B68012213403A689A4236
:102EC00001D001239AE07B681B680222134015D0D1
:102ED0007B681B680422134006D04B4B5A684A4B50
:102EE000E021C9000A435A60474B5B68F0229343D4
:102EF00019007B689A68444B0A435A607B681B68D8
:102F00000122134040D07B685B68012B07D13E4B08
:102F10001A6880239B02134014D101236EE07B6862
:102F20005B68022B07D1384B1A6880239B0413403F
:102F300008D1012362E0344B1B680222134001D107
:102F400001235BE0304B5B680322934319007B68ED
:102F50005A682D4B0A435A60FFF798F90300FB604B
:102F600009E0FFF793F90200FB68D31A274A93425E
:102F700001D9032342E0244B5B680C221A407B6892
:102F80005B689B009A42ECD11E4B1B6801221340E8
:102F90003A689A4211D21B4B1B68012293431900D5
:102FA000184B3A680A431A60164B1B6801221340FB
:102FB0003A689A4201D0012320E07B681B68042212
:102FC000134009D0104B5B68114A134019007B680D
:102FD000DA680D4B0A435A6000F020F801000A4BF2
:102FE0005B681B090F2213400A4AD35C0A00DA40CF
:102FF000094B1A600320FFF703F900231800BD46B0
:1030000004B080BD00200240001002408813000080
:10301000FFF8FFFF6C5400080000002080B586B068
:1030200000AF0023FB600023BB6000237B61002313
:103030007B6000233B61204B5B68FB60FB680C22DC
:103040001340042B02D0082B03D02CE01B4B3B6118
:103050002CE0FB689B0C0F221340194AD35C7B6069
:10306000154BDB6A0F221340164AD35CBB60FA682B
:1030700080235B02134009D0B9681048FDF74EF871
:1030800003001A007B6853437B6109E079680A00FA
:103090005201521A93019B1ADB005B181B027B61E1
:1030A0007B693B6102E0054B3B61C0463B69180010
:1030B000BD4606B080BDC0460010024000127A0036
:1030C000D4560008E456000880B500AF024B1B68D8
:1030D0001800BD4680BDC0460000002080B500AF8E
:1030E000FFF7F2FF0100064B5B681B0A0722134043
:1030F000044AD35CD9400B001800BD4680BDC046D1
:10310000001002407C54000880B586B000AF7860A3
:1031100000233B610023FB607B681A6880235B020D
:10312000134000D18EE017203B1800221A70574B35
:10313000DA6980235B05134010D1544BDA69534B95
:10314000802149050A43DA61504BDA6980235B0527
:103150001340BB60BB683B1801221A704C4B1A68C5
:1031600080235B0013401AD1494B1A68484B8021D9
:1031700049000A431A60FFF789F803003B6108E041
:10318000FFF784F802003B69D31A642B01D90323AB
:1031900077E03F4B1A6880235B001340F0D03B4B35
:1031A0001A6AC0239B001340FB60FB68002B34D0DD
:1031B0007B685A68C0239B001340FA689A422CD05F
:1031C000324B1B6A334A1340FB60304B1A6A2F4B59
:1031D000802149020A431A622C4B1A6A2B4B2E4952
:1031E0000A401A62294BFA681A62FB6801221340EE
:1031F00013D0FFF74BF803003B6109E0FFF746F8F7
:1032000002003B69D31A254A934201D9032338E0CF
:103210001E4B1B6A02221340F0D01C4B1B6A1D4A36
:10322000134019007B685A68184B0A431A62172327
:10323000FB181B78012B05D1144BDA69134B184985
:103240000A40DA617B681B680122134009D00F4BEA
:103250001B6B0322934319007B689A680B4B0A434C
:103260001A637B681B682022134009D0074B1B6B35
:103270001022934319007B68DA68044B0A431A63EF
:1032800000231800BD4606B080BDC04600100240B5
:1032900000700040FFFCFFFFFFFFFEFF88130000EF
:1032A000FFFFFFEF80B582B000AF78607B68002B36
:1032B00001D1012342E07B683D229B5CDBB2002B05
:1032C00007D17B683C22002199547B681800FDF7E8
:1032D00069F97B683D22022199547B681A687B68F2
:1032E00004331900100000F091FA7B684622012196
:1032F00099547B683E22012199547B683F22012129
:1033000099547B684022012199547B684122012114
:1033100099547B684222012199547B684322012100
:1033200099547B684422012199547B6845220121EC
:1033300099547B683D220121995400231800BD4611
:1033400002B080BD80B584B000AF78607B683D225C
:103350009B5CDBB2012B01D0012336E07B683D2270
:10336000022199547B681B68DA687B681B6801211D
:103370000A43DA607B681B68164A93420AD07B686E
:103380001A688023DB059A4204D07B681B68124AC6
:10339000934211D17B681B689B6807221340FB6036
:1033A000FB68062B10D07B681B681A687B681B685B
:1033B00001210A431A6007E07B681B681A687B6872
:1033C0001B6801210A431A6000231800BD4604B09F
:1033D00080BDC046002C01400004004080B582B092
:1033E00000AF78607B681B68DA687B681B68012126
:1033F0008A43DA607B681B681B6A0D4A13400DD153
:103400007B681B681B6A0B4A134007D17B681B68EB
:103410001A687B681B6801218A431A607B683D2219
:103420000121995400231800BD4602B080BDC0465A
:10343000111100004404000080B584B000AF786032
:103440007B681B68DB68FB607B681B681B69BB6073
:10345000BB680222134021D0FB68022213401DD01A
:103460007B681B68032252421A617B6801221A772B
:103470007B681B689B690322134004D07B6818009B
:1034800000F0ACF907E07B68180000F09FF97B685A
:10349000180000F0ABF97B6800221A77BB680422A1
:1034A000134022D0FB68042213401ED07B681B68A7
:1034B000052252421A617B6802221A777B681B68D8
:1034C0009A69C0239B00134004D07B68180000F069
:1034D00085F907E07B68180000F078F97B68180030
:1034E00000F084F97B6800221A77BB680822134039
:1034F00021D0FB68082213401DD07B681B6809227D
:1035000052421A617B6804221A777B681B68DB6968
:103510000322134004D07B68180000F05FF907E035
:103520007B68180000F052F97B68180000F05EF923
:103530007B6800221A77BB681022134022D0FB68F8
:10354000102213401ED07B681B68112252421A6160
:103550007B6808221A777B681B68DA69C0239B00A6
:10356000134004D07B68180000F038F907E07B684E
:10357000180000F02BF97B68180000F037F97B6821
:1035800000221A77BB68012213400CD0FB6801228D
:10359000134008D07B681B68022252421A617B6884
:1035A000180000F00BF9BB68802213400CD0FB68B8
:1035B0008022134008D07B681B68812252421A6126
:1035C0007B68180000F0A0FABB68402213400CD0C2
:1035D000FB684022134008D07B681B68412252429E
:1035E0001A617B68180000F009F9BB6820221340BB
:1035F0000CD0FB682022134008D07B681B68212276
:1036000052421A617B68180000F076FAC046BD4647
:1036100004B080BD80B584B000AF786039600F23FE
:10362000FB1800221A707B683C229B5C012B01D1A5
:103630000223BCE07B683C22012199547B683D2237
:10364000022199547B681B689B68BB60BB6877222A
:103650009343BB60BB68584A1340BB607B681B68E0
:10366000BA689A603B681B6880229201934240D0FE
:1036700080229201934200D988E080225201934235
:1036800000D188E080225201934200D97EE0702B65
:1036900018D000D97AE0602B4FD000D976E0502BBB
:1036A0003BD000D972E0402B57D000D96EE0302BD0
:1036B00063D06BD8202B60D068D8002B5DD0102B46
:1036C0005BD063E07B6818683B6899683B685A6820
:1036D0003B68DB6800F098F97B681B689B68BB60FF
:1036E000BB6877221343BB607B681B68BA689A602B
:1036F00052E07B6818683B6899683B685A683B6889
:10370000DB6800F081F97B681B689A687B681B683E
:103710008021C9010A439A603EE07B6818683B68D3
:1037200059683B68DB681A0000F0F4F87B681B6896
:103730005021180000F04EF92EE07B6818683B68B5
:1037400059683B68DB681A0000F012F97B681B6857
:103750006021180000F03EF91EE07B6818683B68A5
:1037600059683B68DB681A0000F0D4F87B681B6876
:103770004021180000F02EF90EE07B681A683B68C3
:103780001B681900100000F025F905E00F23FB1855
:1037900001221A7000E0C0467B683D220121995445
:1037A0007B683C22002199540F23FB181B781800DA
:1037B000BD4604B080BDC046FF00FFFF80B582B0AB
:1037C00000AF7860C046BD4602B080BD80B582B013
:1037D00000AF7860C046BD4602B080BD80B582B003
:1037E00000AF7860C046BD4602B080BD80B582B0F3
:1037F00000AF7860C046BD4602B080BD80B582B0E3
:1038000000AF7860C046BD4602B080BD80B584B0D0
:1038100000AF786039607B681B68FB607B68374A63
:10382000934208D07A688023DB059A4203D07B68F4
:10383000334A934208D1FB6870229343FB603B6894
:103840005B68FA681343FB607B682C4A934214D090
:103850007A688023DB059A420FD07B68284A93421E
:103860000BD07B68274A934207D07B68264A934255
:1038700003D07B68254A934208D1FB68244A134051
:10388000FB603B68DB68FA681343FB60FB688022DF
:1038900093431A003B685B691343FB607B68FA68DB
:1038A0001A603B689A687B68DA623B681A687B68D2
:1038B0009A627B68114A934207D07B68124A93420E
:1038C00003D07B68114A934203D13B681A697B6835
:1038D0001A637B6801225A617B681B6901221340CD
:1038E000012B06D17B681B69012293431A007B6878
:1038F0001A61C046BD4604B080BDC046002C0140E0
:103900000004004000200040004401400048014005
:10391000FFFCFFFF80B586B000AFF860B9607A6049
:10392000FB681B6A7B61FB681B6A012293431A00D8
:10393000FB681A62FB689B693B613B69F022934319
:103940003B617B681B013A6913433B617B690A2237
:1039500093437B617A69BB6813437B61FB683A6977
:103960009A61FB687A691A62C046BD4606B080BD9E
:1039700080B586B000AFF860B9607A60FB681B6AFA
:103980007B61FB681B6A102293431A00FB681A6272
:10399000FB689B693B613B690D4A13403B617B6857
:1039A0001B033A6913433B617B69A02293437B610C
:1039B000BB681B017A6913437B61FB683A699A61B2
:1039C000FB687A691A62C046BD4606B080BDC04633
:1039D000FF0FFFFF80B584B000AF786039607B686F
:1039E0009B68FB60FB6870229343FB603A68FB684E
:1039F000134307221343FB607B68FA689A60C04652
:103A0000BD4604B080BD000080B586B000AFF86050
:103A1000B9607A603B60FB689B687B617B69094A9F
:103A200013407B613B681A027B681A43BB681343EF
:103A30007A6913437B61FB687A699A60C046BD4628
:103A400006B080BDFF00FFFF80B584B000AF786096
:103A500039607B683C229B5C012B01D1022342E050
:103A60007B683C22012199547B683D2202219954B4
:103A70007B681B685B68FB607B681B689B68BB603E
:103A8000FB6870229343FB603B681B68FA68134332
:103A9000FB607B681B68FA685A607B681B68144A85
:103AA00093420AD07B681A688023DB059A4204D0CF
:103AB0007B681B680F4A93420CD1BB6880229343FA
:103AC000BB603B685B68BA681343BB607B681B687C
:103AD000BA689A607B683D22012199547B683C2238
:103AE0000021995400231800BD4604B080BDC04693
:103AF000002C01400004004080B582B000AF786027
:103B0000C046BD4602B080BD80B582B000AF7860CF
:103B1000C046BD4602B080BD80B582B000AF7860BF
:103B20007B68002B01D1012344E07B68DB6F002B15
:103B300007D17B687822002199547B681800FCF734
:103B400055FD7B682422DA677B681B681A687B68EE
:103B50001B6801218A431A607B685B6A002B03D0D3
:103B60007B68180000F0F4F97B68180000F0C8F8D2
:103B70000300012B01D101231CE07B681B685A68FC
:103B80007B681B680D490A405A607B681B689A680D
:103B90007B681B682A218A439A607B681B681A68C5
:103BA0007B681B6801210A431A607B68180000F0DB
:103BB00083FA03001800BD4602B080BDFFB7FFFFC7
:103BC00080B58AB002AFF860B9603B60BB1D1A8057
:103BD000FB68DB6F202B00D08DE0BB68002B03D08F
:103BE000BB1D1B88002B01D1012385E0FB689A686F
:103BF00080235B019A4209D1FB681B69002B05D128
:103C0000BB680122134001D0012375E0FB688422C8
:103C100000219950FB682122DA67FEF737FB030089
:103C20007B61FB68BA1D502112885A52FB68BA1D8D
:103C3000522112885A52FB689A6880235B019A428B
:103C400008D1FB681B69002B04D10023FB61BB6812
:103C5000BB6103E0BB68FB610023BB6130E07A69B4
:103C6000F8683B68009313000022802100F0CCFA32
:103C7000031E04D0FB682022DA6703233CE0FB69C3
:103C8000002B0BD1BB691A88FB681B68D205D20DCB
:103C900092B21A85BB690233BB6108E0FB691A78EE
:103CA000FB681B6892B21A85FB690133FB61FB68F4
:103CB00052229B5A9BB2013B99B2FB685222995205
:103CC000FB6852229B5A9BB2002BC8D17A69F868D4
:103CD0003B68009313000022402100F095FA031E78
:103CE00004D0FB682022DA67032305E0FB6820226A
:103CF000DA67002300E002231800BD4608B080BD4B
:103D000080B588B000AF78601E23FB1800221A70BF
:103D10007B689A687B681B691A437B685B691A43F6
:103D20007B68DB6913437B617B681B681B68834A84
:103D3000134019007B681B687A690A431A607B6824
:103D40001B685B687E4A134019007B68DA687B68F1
:103D50001B680A435A607B689B697B617B681B6AAE
:103D60007A6913437B617B681B689B68754A1340C3
:103D700019007B681B687A690A439A60724B1B6B57
:103D800003221340032B0DD01BD8022B14D018D8BC
:103D9000002B02D0012B0AD013E01F23FB180022B6
:103DA0001A7012E01F23FB1802221A700DE01F2365
:103DB000FB1804221A7008E01F23FB1808221A704F
:103DC00003E01F23FB1810221A707B68DA69802336
:103DD0001B029A425CD11F23FB181B78082B15D0BD
:103DE00018DC042B0DD015DC002B02D0022B05D0E3
:103DF00010E0FFF773F90300BB6112E0534BBB61A6
:103E00000FE0FFF70BF90300BB610AE080231B0200
:103E1000BB6106E00023BB611E23FB1801221A7060
:103E2000C046BB69002B00D17AE0BB695A007B68B1
:103E30005B685B08D2187B685B6819001000FCF7B0
:103E40006DF903003B613B690F2B1CD93A69802354
:103E50005B029A4217D23B699AB20E203B180F219F
:103E60008A431A803B695B089BB20722134099B2D0
:103E70003B183A1812880A431A807B681B683A1864
:103E80001288DA604CE01E23FB1801221A7047E00A
:103E90001F23FB181B78082B15D018DC042B0DD022
:103EA00015DC002B02D0022B05D010E0FFF716F92D
:103EB0000300BB6112E0254BBB610FE0FFF7AEF8DA
:103EC0000300BB610AE080231B02BB6106E0002304
:103ED000BB611E23FB1801221A70C046BB69002B70
:103EE0001ED07B685B685A08BB69D2187B685B6828
:103EF00019001000FCF712F903003B613B690F2B1E
:103F00000AD93A6980235B029A4205D23B699AB288
:103F10007B681B68DA6003E01E23FB1801221A701D
:103F20007B6800229A667B680022DA661E23FB18F3
:103F30001B781800BD4608B080BDC046F369FFFF7E
:103F4000FFCFFFFFFFF4FFFF0010024000127A00D6
:103F500080B582B000AF78607B685B6A082213404E
:103F60000BD07B681B685B684A4A134019007B686A
:103F70005A6B7B681B680A435A607B685B6A012244
:103F800013400BD07B681B685B68434A13401900E1
:103F90007B689A6A7B681B680A435A607B685B6A25
:103FA000022213400BD07B681B685B683B4A1340BE
:103FB00019007B68DA6A7B681B680A435A607B6871
:103FC0005B6A042213400BD07B681B685B68344A31
:103FD000134019007B681A6B7B681B680A435A60A0
:103FE0007B685B6A102213400BD07B681B689B6860
:103FF0002C4A134019007B689A6B7B681B680A4344
:104000009A607B685B6A202213400BD07B681B6838
:104010009B68254A134019007B68DA6B7B681B6834
:104020000A439A607B685B6A402213401DD07B681C
:104030001B685B681D4A134019007B681A6C7B681B
:104040001B680A435A607B681A6C80235B039A42A0
:104050000BD17B681B685B68154A134019007B68AD
:104060005A6C7B681B680A435A607B685B6A8022D3
:1040700013400BD07B681B685B680E4A1340190025
:104080007B689A6C7B681B680A435A60C046BD46D1
:1040900002B080BDFF7FFFFFFFFFFDFFFFFFFEFFC0
:1040A000FFFFFBFFFFEFFFFFFFDFFFFFFFFFEFFF64
:1040B000FFFF9FFFFFFFF7FF80B592B002AF786070
:1040C0007B68842200219950FEF7E0F80300FB632F
:1040D0007B681B681B6808221340082B2CD1FB6BE4
:1040E000802291037868464A0092002200F08CF802
:1040F000031E21D0EFF310837B627B6ABB63012335
:10410000BB62BB6A83F31088C0467B681B681A6871
:104110007B681B6880218A431A60BB6BFB62FB6A69
:1041200083F31088C0467B682022DA677B68782298
:104130000021995403235FE07B681B681B680422FD
:104140001340042B46D1FB6B8022D10378682C4AA4
:104150000092002200F058F8031E3BD0EFF31083CA
:10416000FB60FB687B6301233B613B6983F3108841
:10417000C0467B681B681A687B681B6821490A4037
:104180001A607B6B7B617B6983F31088C046EFF319
:104190001083BB61BB693B630123FB61FB6983F354
:1041A0001088C0467B681B689A687B681B68012181
:1041B0008A439A603B6B3B623B6A83F31088C0463C
:1041C0007B688022202199507B68782200219954B5
:1041D000032311E07B682022DA677B68802220219C
:1041E00099507B6800221A667B6800225A667B68B9
:1041F00078220021995400231800BD4610B080BDDC
:10420000FFFFFF01DFFEFFFF80B584B000AFF86065
:10421000B9603B60FB1D1A7051E0BB6901334ED0A1
:10422000FEF734F802003B68D31ABA699A4202D307
:10423000BB69002B01D1032351E0FB681B681B689D
:10424000042213403BD0BB68802B38D0BB68402B86
:1042500035D0FB681B68DB6908221340082B11D19D
:10426000FB681B6808221A62FB68180000F03CF823
:10427000FB68842208219950FB6878220021995418
:1042800001232CE0FB681B68DA6980231B011A40BC
:1042900080231B019A4212D1FB681B688022120105
:1042A0001A62FB68180000F01FF8FB6884222021C6
:1042B0009950FB6878220021995403230FE0FB6892
:1042C0001B68DB69BA681340BA68D31A5A42534173
:1042D000DBB21A00FB1D1B789A429ED00023180007
:1042E000BD4604B080BD000080B58EB000AF7860E0
:1042F000EFF310837B617B697B630123BB61BB6947
:1043000083F31088C0467B681B681A687B681B684B
:1043100026490A401A607B6BFB61FB6983F31088B6
:10432000C046EFF310833B623B6A3B6301237B6231
:104330007B6A83F31088C0467B681B689A687B6839
:104340001B6801218A439A603B6BBB62BB6A83F3A3
:104350001088C0467B681B6E012B18D1EFF31083C9
:10436000BB60BB68FB620123FB60FB6883F31088C2
:10437000C0467B681B681A687B681B6810218A43EB
:104380001A60FB6A3B613B6983F31088C0467B6817
:104390008022202199507B6800221A667B680022C7
:1043A0009A66C046BD460EB080BDC046DFFEFFFF28
:1043B0007FB514001A00094B05001B680E00D86871
:1043C000074B002C01D1074B1C00074901930294B5
:1043D0002B00009600F0B2F800F0B4F9E8000020DD
:1043E000F45600082F57000801570008002310B5A5
:1043F000040003604360836081814366C28103617E
:1044000043618361190008225C3000F00FF90B4B07
:10441000246263620A4BA3620A4BE3620A4B236382
:104420000A4B9C4205D00A4B9C4202D0094B9C424D
:1044300003D12000583000F079F910BD95450008EF
:10444000BD450008F545000821460008600300202E
:10445000C80300203004002010B5034A0349044873
:1044600000F07CF810BDC04690000020ED4F000821
:104470009C00002041680B4B10B50400994201D00C
:1044800000F0B4FDA168084B994202D0200000F072
:10449000ADFDE168054B994202D0200000F0A6FD79
:1044A00010BDC04660030020C80300203004002077
:1044B00010B5094B094A04211A6009480022FFF788
:1044C00095FF012209210748FFF790FF02221221E0
:1044D0000548FFF78BFF10BD9804002059440008E1
:1044E00060030020C80300203004002010B50248FB
:1044F00000F01DF910BDC046A104002010B502480F
:1045000000F016F910BDC046A104002010B504004B
:10451000FFF7ECFF236A002B02D0FFF7EFFF10BD7F
:10452000044B2362044B1B68002BF6D1FFF7C0FF3E
:10453000F3E7C04675440008980400200EB417B590
:10454000054C05AB04CB01002068019300F028FA6C
:104550001EBC08BC03B01847E8000020F7B51400E3
:10456000002600900191A5686768013F04D5246882
:10457000002CF8D13000FEBDAB89012B08D90E22EA
:10458000AB5E013304D029000098019B9847064395
:104590006835EAE770B50C000E25495F00F074F845
:1045A000002803DB636D1B18636570BDA389024A95
:1045B0001340A381F9E7C046FFEFFFFFF8B51F00E6
:1045C0008B8905000C001600DB0505D50E23C95E9E
:1045D0000022022300F044F8A389054A2800134072
:1045E000A38132000E23E15E3B0000F061F8F8BDCC
:1045F000FFEFFFFF70B50C000E25495F00F030F8AB
:10460000A389421C03D1054A1340A38170BD8022B7
:1046100052011343A3816065F8E7C046FFEFFFFF37
:1046200010B50E23C95E00F009F810BD0300821812
:10463000934200D1704719700133F9E7002370B538
:10464000064D040008002B60FCF743F9431C03D11E
:104650002B68002B00D0236070BDC0469C04002056
:1046600070B50400080011001A000023054D2B60EE
:10467000FCF750F9431C03D12B68002B00D02360BA
:1046800070BDC0469C04002070B5040008001100F5
:104690001A000023054D2B60FCF7E2F8431C03D100
:1046A0002B68002B00D0236070BDC0469C04002006
:1046B00070B50400080011001A000023054D2B609E
:1046C000FCF7EBF8431C03D12B68002B00D02360D0
:1046D00070BDC0469C040020014B18687047C0465E
:1046E000E800002070B500260C4C0D4D641BA41092
:1046F000A64209D1002600F03DFE0A4C0A4D641B7B
:10470000A410A64205D170BDB300EB5898470136FE
:10471000EEE7B300EB5898470136F2E7005C00087B
:10472000005C0008045C0008005C000870477047EB
:104730007047002310B59A4200D110BDCC5CC45420
:104740000133F8E7062010B500F04CFD0120FCF71E
:104750007BF8000070B50500002910D00C1F2368FD
:10476000002B00DAE418280000F0E2F81D4A136874
:10477000002B05D163601460280000F0E1F870BDE3
:10478000A34208D9206821188B42F3D119685B68CD
:1047900009182160EEE71A005B68002B01D0A342E4
:1047A000F9D911685018A0420BD120680918501887
:1047B00011608342E0D118685B6841181160536052
:1047C000DAE7A04202D90C232B60D5E72068211834
:1047D0008B4203D119685B680918216063605460DB
:1047E000CAE7C046A404002070B50F4E0D00316822
:1047F0000400002902D100F015FD306029002000DE
:1048000000F010FD431C0AD00323C51C9D43A842A1
:1048100007D0291A200000F005FD013001D1012543
:104820006D42280070BDC046A8040020F7B50322E1
:10483000CB1C9343083306001F000C2B38D20C27E7
:10484000B94237D8300000F073F8384B00931B683A
:104850001C00002C33D139003000FFF7C5FF0400E5
:10486000431C5ED1009B1C682500002D4ED1002CFE
:1048700051D023682900E3183000019300F0D2FCE6
:10488000019B834247D123683000FF1A3900FFF7AC
:10489000ABFF01303FD02368DB192360009B1B680E
:1048A000002B40D05A68A24233D100225A6014E053
:1048B000002BC5DA0C23002533602800FEBD2168DB
:1048C000C91B20D40B2918D9E2192760A34212D1A1
:1048D000009B1A606368116053603000250000F08F
:1048E0002FF807220B35231D9543EA1A9D42E4D089
:1048F0005B1BA350E1E75A60ECE76268A342D5D1A5
:10490000009B1A60E9E723006468A2E72C006D6849
:10491000ABE71300C4E70C233000336000F010F85D
:10492000CBE72760D9E75B60FFDEC046A404002028
:1049300010B50248FFF7FBFE10BDC046A0040020E2
:1049400010B50248FFF7F4FE10BDC046A0040020D9
:10495000936810B5013B9360002B04DA9469A3427D
:1049600007DB0A2905D01368581C1060197008006D
:1049700010BD00F066FB0100F9E7F8B506000F0076
:104980001400D518AC4201D1002007E021783A008C
:104990003000FFF7DDFF0134431CF3D1F8BD000008
:1049A000F0B5A1B00F0015001E000390002804D040
:1049B000036A002B01D1FFF7A9FD7B6EDB0705D44D
:1049C000BB899B0502D4B86DFFF7B1FEBB891B07FD
:1049D00002D53B69002B13D13900039800F074FB1A
:1049E00000280DD07B6EDB0703D50120404221B0AB
:1049F000F0BDBB899B05F8D4B86DFFF799FEF4E7CD
:104A0000002308AC6361203363761033A3760796E6
:104A10002E003378002B01D0252B48D1731B059332
:104A2000AE420BD02A0039000398FFF7A6FF0130F1
:104A300000D1AFE06369059A9B1863613378002B5E
:104A400000D1A7E0012200235242626004A954323F
:104A50005218751C2360E360A3601370A365594B63
:104A6000052218002978059300F0EEFB6E1C002843
:104A70001FD12268D30604D5532304A95B18202133
:104A80001970130704D5532304A95B182B2119703F
:104A90002B782A2B16D02E0000210A20E3683278CA
:104AA000751C303A092A4ED9002911D117E0013678
:104AB000AFE7059B2268C01A0123834013433500EA
:104AC0002360CCE7079B191D1B680791002B01DBB6
:104AD0000B9304E05B42E3600223134323603378CB
:104AE0002E2B0AD173782A2B35D1079B02361A1D3B
:104AF0001B680792002B2BDB0993334D0322280000
:104B0000317800F0A1FB002806D04023401B8340F1
:104B10002268013613432360317806222B48751C26
:104B2000217600F091FB002843D0294B002B25D1A2
:104B30000722079B07339343083307936369049A5B
:104B40009B18636164E743432E0001219B18A6E78D
:104B500001235B42D0E700230A201A00013663607C
:104B60003178751C3039092903D9002BC5D0099239
:104B7000C3E742432E0001235218F1E707AA00922F
:104B800021003A00134B039800E000BF0490049BFF
:104B90000133D3D17B6EDB0705D4BB899B0502D4DF
:104BA000B86DFFF7C5FDBB895B0600D51DE70D9805
:104BB0001DE707AA009221003A00064B039800F077
:104BC0007BF8E3E730570008365700083A570008EB
:104BD000000000007B490008F7B5160001938A68C1
:104BE0000B690C000090934200DA1300220033603E
:104BF00043321278002A01D00133336023689B06C8
:104C000002D53368023333602268062315001D4045
:104C10001A4227D0230043331B785A1E934122683F
:104C2000920630D4220001990098089D4332A8478B
:104C3000013025D00622236800251340042B05D11E
:104C40003368E568ED1AEB43DB171D40A368226962
:104C5000934201DD9B1AED180026B54220D10020B9
:104C600010E00135E36832689B1AAB42D2DD2200C6
:104C7000012301990098089F1932B8470130F0D1FB
:104C800001204042FEBD3020E11843310870210070
:104C90005A1C45310978A218433202331170C1E71A
:104CA0002200012301990098089F1A32B847013069
:104CB000E6D00136D1E70000F0B58BB006920A00CD
:104CC00043320793059004920A7E0C00109B782AC9
:104CD00009D8622A0BD8002A00D1BEE07C49039192
:104CE000582A00D193E026004236327022E01000AC
:104CF00063381528F7D8FBF707FA16001F00F6FFF0
:104D0000F6FFF6FFF6FF1F00F6FFF6FFF6FFF6FFD1
:104D1000A30036008300F6FFF6FFB400F6FF36006E
:104D2000F6FFF6FF870026001A684236111D19604B
:104D3000136833700123A2E018680968021D0D068C
:104D40000BD505681A60002D03DA2D23049A6D42F5
:104D500013705F4B0A2703931BE005681A6049062E
:104D6000F1D52DB2EFE70D681968081D18602E0601
:104D700001D50D6803E06D06FBD50D68ADB2544B4F
:104D8000082703936F2A00D0023723000022433301
:104D90001A706368A360002B03DB042122688A4336
:104DA0002260002D02D1049E002B0CD0049E28000E
:104DB0003900FBF739FA039B013E5B5C33702B0033
:104DC00005009F42F3D9082F09D12368DB0706D5D8
:104DD000626823699A4202DC3023013E3370049BEF
:104DE0009B1B2361079B210000930598069B09AA42
:104DF000FFF7F2FE013047D1012040420BB0F0BD79
:104E0000202209680A432260782232490391210056
:104E100045310A701968226820C9100602D450066C
:104E200000D5ADB21960D30702D520231343236008
:104E30001027002DA9D12022236893432360A4E7E3
:104E40001A680D68101D4969186013682E0601D58F
:104E5000196002E06D06FBD519800023049E2361D2
:104E6000C0E71A68111D19601668002130006268D9
:104E700000F0EAF9002801D0801B606063682361BC
:104E80000023049A1370ADE7320023690699059850
:104E9000079DA8470130AFD023689B0715D4099B15
:104EA000E0689842AADA1800A8E7220001230699D0
:104EB0000598079E1932B04701309DD00135E3684F
:104EC000099A9B1AAB42F0DCE9E70025F7E7C046F8
:104ED0004157000852570008F7B58B8905000C00B0
:104EE0001A075CD44A68002A04DC0A6C002A01DC38
:104EF0000020FEBDE76A002FFAD0002280202E6835
:104F00002A601A004001216A0240034234D0606DD9
:104F1000A3895B0706D56368C01A636B002B01D0B9
:104F2000236CC01A020000232800E76A216AB847F0
:104F3000A289431C06D129681D292CD82A4B0B4174
:104F4000DB0728D40023636023692360D20405D5DE
:104F5000431C02D12B68002B00D16065616B2E6071
:104F60000029C5D023004433994202D02800FFF71E
:104F7000F1FB00206063BCE701232800B847431C15
:104F8000C6D12B68002BC3D01D2B01D0162B01D10D
:104F90002E60ADE7A28940231343A381A9E70E69E0
:104FA000002EA5D00F680E60BA1B019200229B074D
:104FB00000D14A69A260019B002B99DDA36A3200EF
:104FC0001F002800019B216AB847002806DC402307
:104FD0000120A28940421343A3818AE7019B36182E
:104FE0001B1A0193E7E7C046FEFFBFDF0B6970B5F0
:104FF00005000C00002B02D10025280070BD002800
:1050000004D0036A002B01D1FFF780FA0C22A35EC3
:10501000002BF1D0626ED20704D49B0502D4A06DA0
:10502000FFF785FB28002100FFF756FF636E0500A0
:10503000DB07E2D4A3899B05DFD4A06DFFF778FBE3
:10504000DBE7F8B506000D001400002804D0036A61
:10505000002B01D1FFF75AFAA369A360A3891B07AC
:1050600028D52369002B25D023692068EFB2C01A08
:105070006369EDB2834205DC21003000FFF7B6FF23
:1050800000281DD1A3680130013BA36023685A1C8E
:1050900022601F706369834204D0A389DB0707D5B0
:1050A0000A2D05D121003000FFF7A0FF002807D10D
:1050B0002800F8BD2100300000F006F80028D3D009
:1050C00001256D42F4E70000304B70B5050018680B
:1050D0000C00002804D0036A002B01D1FFF716FA58
:1050E0000C23E25E93B2110723D4D90607D4092317
:1050F00001202B6037331343A381404270BD5B070F
:1051000013D5616B002908D023004433994202D0A3
:105110002800FFF71FFB002363632422A389934326
:10512000A38100236360236923600823A2891343BA
:10513000A3812369002B0BD1A0218022A3898900A0
:1051400092000B40934203D02100280000F0B0F8F9
:105150000C22A35E01201A0099B2024003420FD034
:105160000022A26062695242A2610020226982424A
:10517000C4D10906C2D540221343A3810138BDE73B
:10518000880700D46269A260EFE7C046E80000200B
:1051900070B504000D001F2904D9162303600120F7
:1051A000404270BDC36B002B04D08A009B181A6864
:1051B000002A08D1200000F031F82A000100200068
:1051C00000F01AF8EDE70020012AEAD0511C03D1C3
:1051D000162301302360E4E7002428001C60904778
:1051E0002000DEE710B5034B01001868FFF7D0FF81
:1051F00010BDC046E8000020002370B5064D040035
:10520000080011002B60FBF70FFB431C03D12B6838
:10521000002B00D0236070BD9C04002010B5FBF76C
:10522000FDFA10BD002370B5064D040008002B6088
:10523000FBF77CFB431C03D12B68002B00D02360C1
:1052400070BDC0469C040020C9B28218904201D1B2
:105250000020704703788B42FBD00130F6E7000056
:1052600070B50E001D000E23C95E140096B0002913
:105270000CDAB2898023110019401A4213D00021A0
:10528000403B00202960236016B070BD6A4600F0E4
:105290004DF80028EDDBF02301991B021940034B68
:1052A000C9184B4259418023DB00EAE700E0FFFFC9
:1052B000F7B502268B8905000C00334206D0230087
:1052C00047332360236101236361F7BD6A4601AB65
:1052D000FFF7C6FF009907002800FFF7A7FA00288C
:1052E00008D10C22A35E9A05EFD4032293431E43F8
:1052F000A681E4E78023A28920601343A381009B59
:1053000020616361019B002B0CD028000E23E15E1D
:1053100000F01EF8002805D00323A2899A43023B1F
:105320001343A381A3893B43A381CEE7002370B538
:10533000064D0400080011002B60FBF7D4FA431C53
:1053400003D12B68002B00D0236070BD9C0400208B
:10535000002370B5064D040008002B60FBF7D1FA5E
:10536000431C03D12B68002B00D0236070BDC046C6
:105370009C040020F8B5C046F8BC08BC9E467047A7
:0C538000F8B5C046F8BC08BC9E4670475B
:10538C007573526376427566666572506F73203C16
:10539C00204D425F5345525F5044555F53495A4527
:1053AC005F4D4158000000002E2E2F436F72652F69
:1053BC006D6F646275732F7274752F6D6272747574
:1053CC002E63000065536E645374617465203D3D1B
:1053DC002053544154455F54585F49444C45000098
:1053EC00655263765374617465203D3D205354417E
:1053FC0054455F52585F49444C4500002820655283
:10540C0063765374617465203D3D2053544154457B
:10541C005F52585F494E49542029207C7C2028201B
:10542C00655263765374617465203D3D205354413D
:10543C0054455F52585F5243562029207C7C2028CB
:10544C0020655263765374617465203D3D2053543E
:10545C004154455F52585F4552524F52202900002B
:10546C000000000000000000010203040607080908
:10547C00000000000102030400C1814001C0804112
:10548C0001C0804100C1814001C0804100C1814008
:10549C0000C1814001C0804101C0804100C18140F8
:1054AC0000C1814001C0804100C1814001C08041E8
:1054BC0001C0804100C1814001C0804100C18140D8
:1054CC0000C1814001C0804100C1814001C08041C8
:1054DC0001C0804100C1814000C1814001C08041B8
:1054EC0001C0804100C1814001C0804100C18140A8
:1054FC0000C1814001C0804101C0804100C1814098
:10550C0000C1814001C0804100C1814001C0804187
:10551C0001C0804100C1814000C1814001C0804177
:10552C0001C0804100C1814001C0804100C1814067
:10553C0000C1814001C0804100C1814001C0804157
:10554C0001C0804100C1814001C0804100C1814047
:10555C0000C1814001C0804101C0804100C1814037
:10556C0000C1814001C0804100C1814001C0804127
:10557C0001C0804100C1814000C0C101C30302C20F
:10558C00C60607C705C5C404CC0C0DCD0FCFCE0E77
:10559C000ACACB0BC90908C8D81819D91BDBDA1AE7
:1055AC001EDEDF1FDD1D1CDC14D4D515D71716D657
:1055BC00D21213D311D1D010F03031F133F3F232C7
:1055CC0036F6F737F53534F43CFCFD3DFF3F3EFE37
:1055DC00FA3A3BFB39F9F83828E8E929EB2B2AEAA7
:1055EC00EE2E2FEF2DEDEC2CE42425E527E7E62617
:1055FC0022E2E323E12120E0A06061A163A3A26287
:10560C0066A6A767A56564A46CACAD6DAF6F6EAEF6
:10561C00AA6A6BAB69A9A86878B8B979BB7B7ABA66
:10562C00BE7E7FBF7DBDBC7CB47475B577B7B676D6
:10563C0072B2B373B17170B0509091519353529246
:10564C0096565797559594549C5C5D9D5F9F9E5EB6
:10565C005A9A9B5B99595898884849894B8B8A4A26
:10566C004E8E8F4F8D4D4C8C448485458747468696
:10567C008242438341818040654D4252545552656C
:10568C006365697665000000784D42525455526549
:10569C00636569766546534D00000000784D4252B3
:1056AC0054555472616E736D697446534D0000000D
:1056BC00784D4252545554696D6572543335457862
:1056CC00706972656400000002030405060708098E
:1056DC000A0B0C0D0E0F101001020304050607082F
:1056EC00090A0B0C0D0E0F102C2066756E63746975
:1056FC006F6E3A2000617373657274696F6E20224D
:10570C00257322206661696C65643A2066696C6554
:10571C0020222573222C206C696E6520256425734C
:10572C0025730A00232D302B2000686C4C00656615
:10573C0067454647003031323334353637383941D6
:10574C0042434445460030313233343536373839EC
:08575C006162636465660000F0
:105800000000000000000000000000000000000098
:105810000000000000000000000000000000000088
:105820000000000000000000000000000000000078
:105830000000000000000000000000000000000068
:045C0000E9000008AF
:045C0400C1000008D3
:105C080000127A00D007020011000000C91600082F
:105C180004000000A115000803000000B7120008E6
:105C280010000000C1110008060000003111000832
:105C380017000000D513000801000000810C0008BF
:105C480005000000D70D00080F000000B30E000883
:105C580002000000DB0F0008000000000000000048
:105C6800000000000000000000000000000000002C
:105C7800000000000000000000000000000000001C
:105C88000000000000000000040000000100000007
:105C98000000000003000000600300200000000076
:105CA80060030020C803002030040020000000002A
:105CB80000000000000000000000000000000000DC
:105CC80000000000000000000000000000000000CC
:105CD80000000000000000000000000000000000BC
:0C5CE80000000000000000009C000020F4
:04000005080009A541
:00000001FF
